:100000000C9434000C946B000C946B000C946B00FB
:100010000C946B000C946B000C946B000C946B00B4
:100020000C946B000C946B000C946B000C946B00A4
:100030000C946B000C946B000C946B000C946B0094
:100040000C946B000C946B000C946B000C946B0084
:100050000C946B000C946B000C946B000C946B0074
:100060000C946B000C946B0011241FBECFEFD8E0F2
:10007000DEBFCDBF0E9440000C946000F894FFCF1B
:1000800021982298299A2A9A239A249A259A2B9879
:100090002C982D981A990EC02B9A2C9A2FEF83E248
:1000A00094EF215080409040E1F700C000002D9A6D
:1000B0002C98F0CF1999EECF2B982C982D98EACF49
:1000C000EC010E9470000E946F00CE010E9471003E
:0600D000CE010E946D004C
:0400D6000C94000086
:0400DA000E943E0042
:0200DE00089583
:0200E000089581
:0200E20008957F
:00000001FF
